{
  "_format": "hh-sol-artifact-1",
  "contractName": "UsersInfo",
  "sourceName": "contracts/EEG_HC.sol",
  "abi": [
    {
      "inputs": [],
      "stateMutability": "nonpayable",
      "type": "constructor"
    },
    {
      "inputs": [
        {
          "internalType": "string",
          "name": "_participantId",
          "type": "string"
        }
      ],
      "name": "getData",
      "outputs": [
        {
          "internalType": "string",
          "name": "",
          "type": "string"
        }
      ],
      "stateMutability": "view",
      "type": "function"
    },
    {
      "inputs": [],
      "name": "getRoot",
      "outputs": [
        {
          "internalType": "string",
          "name": "",
          "type": "string"
        }
      ],
      "stateMutability": "pure",
      "type": "function"
    },
    {
      "inputs": [
        {
          "internalType": "string",
          "name": "_participantId",
          "type": "string"
        }
      ],
      "name": "getUser",
      "outputs": [
        {
          "internalType": "uint256",
          "name": "",
          "type": "uint256"
        },
        {
          "internalType": "string",
          "name": "",
          "type": "string"
        },
        {
          "internalType": "string",
          "name": "",
          "type": "string"
        },
        {
          "internalType": "string",
          "name": "",
          "type": "string"
        },
        {
          "internalType": "string[12]",
          "name": "",
          "type": "string[12]"
        }
      ],
      "stateMutability": "view",
      "type": "function"
    }
  ],
  "bytecode": "0x60806040523480156200001157600080fd5b506040518060c00160405280601581526020016040518060400160405280600181526020017f6d0000000000000000000000000000000000000000000000000000000000000081525081526020016040518060400160405280600581526020017f73686f727400000000000000000000000000000000000000000000000000000081525081526020016040518060400160405280600181526020017f520000000000000000000000000000000000000000000000000000000000000081525081526020016040518061018001604052806040518060400160405280600481526020017f533030310000000000000000000000000000000000000000000000000000000081525081526020016040518060400160405280600481526020017f533030320000000000000000000000000000000000000000000000000000000081525081526020016040518060400160405280600481526020017f533030330000000000000000000000000000000000000000000000000000000081525081526020016040518060400160405280600181526020017f300000000000000000000000000000000000000000000000000000000000000081525081526020016040518060400160405280600181526020017f300000000000000000000000000000000000000000000000000000000000000081525081526020016040518060400160405280600181526020017f300000000000000000000000000000000000000000000000000000000000000081525081526020016040518060400160405280600181526020017f300000000000000000000000000000000000000000000000000000000000000081525081526020016040518060400160405280600181526020017f300000000000000000000000000000000000000000000000000000000000000081525081526020016040518060400160405280600181526020017f300000000000000000000000000000000000000000000000000000000000000081525081526020016040518060400160405280600181526020017f300000000000000000000000000000000000000000000000000000000000000081525081526020016040518060400160405280600181526020017f300000000000000000000000000000000000000000000000000000000000000081525081526020016040518060400160405280600181526020017f300000000000000000000000000000000000000000000000000000000000000081525081525081526020016040518060800160405280604c815260200162004910604c91398152506000604051620003d59062003fc7565b90815260200160405180910390206000820151816000015560208201518160010190805190602001906200040b929190620039fc565b5060408201518160020190805190602001906200042a929190620039fc565b50606082015181600301908051906020019062000449929190620039fc565b5060808201518160040190600c6200046392919062003a83565b5060a082015181601001908051906020019062000482929190620039fc565b509050506040518060c00160405280601981526020016040518060400160405280600181526020017f6d0000000000000000000000000000000000000000000000000000000000000081525081526020016040518060400160405280600a81526020017f766572792073686f72740000000000000000000000000000000000000000000081525081526020016040518060400160405280600181526020017f520000000000000000000000000000000000000000000000000000000000000081525081526020016040518061018001604052806040518060400160405280600481526020017f533030310000000000000000000000000000000000000000000000000000000081525081526020016040518060400160405280600481526020017f533030320000000000000000000000000000000000000000000000000000000081525081526020016040518060400160405280600481526020017f533030330000000000000000000000000000000000000000000000000000000081525081526020016040518060400160405280600181526020017f300000000000000000000000000000000000000000000000000000000000000081525081526020016040518060400160405280600181526020017f300000000000000000000000000000000000000000000000000000000000000081525081526020016040518060400160405280600181526020017f300000000000000000000000000000000000000000000000000000000000000081525081526020016040518060400160405280600181526020017f300000000000000000000000000000000000000000000000000000000000000081525081526020016040518060400160405280600181526020017f300000000000000000000000000000000000000000000000000000000000000081525081526020016040518060400160405280600181526020017f300000000000000000000000000000000000000000000000000000000000000081525081526020016040518060400160405280600181526020017f300000000000000000000000000000000000000000000000000000000000000081525081526020016040518060400160405280600181526020017f300000000000000000000000000000000000000000000000000000000000000081525081526020016040518060400160405280600181526020017f300000000000000000000000000000000000000000000000000000000000000081525081525081526020016040518060800160405280604c815260200162004910604c91398152506000604051620008499062003f26565b90815260200160405180910390206000820151816000015560208201518160010190805190602001906200087f929190620039fc565b5060408201518160020190805190602001906200089e929190620039fc565b506060820151816003019080519060200190620008bd929190620039fc565b5060808201518160040190600c620008d792919062003a83565b5060a0820151816010019080519060200190620008f6929190620039fc565b509050506040518060c00160405280601781526020016040518060400160405280600181526020017f6d0000000000000000000000000000000000000000000000000000000000000081525081526020016040518060400160405280600a81526020017f766572792073686f72740000000000000000000000000000000000000000000081525081526020016040518060400160405280600181526020017f520000000000000000000000000000000000000000000000000000000000000081525081526020016040518061018001604052806040518060400160405280600481526020017f533030310000000000000000000000000000000000000000000000000000000081525081526020016040518060400160405280600481526020017f533030320000000000000000000000000000000000000000000000000000000081525081526020016040518060400160405280600481526020017f533030330000000000000000000000000000000000000000000000000000000081525081526020016040518060400160405280600481526020017f533030340000000000000000000000000000000000000000000000000000000081525081526020016040518060400160405280600481526020017f533030350000000000000000000000000000000000000000000000000000000081525081526020016040518060400160405280600481526020017f533030360000000000000000000000000000000000000000000000000000000081525081526020016040518060400160405280600481526020017f533030370000000000000000000000000000000000000000000000000000000081525081526020016040518060400160405280600481526020017f533030380000000000000000000000000000000000000000000000000000000081525081526020016040518060400160405280600481526020017f533030390000000000000000000000000000000000000000000000000000000081525081526020016040518060400160405280600481526020017f533031300000000000000000000000000000000000000000000000000000000081525081526020016040518060400160405280600481526020017f533031310000000000000000000000000000000000000000000000000000000081525081526020016040518060400160405280600481526020017f533031320000000000000000000000000000000000000000000000000000000081525081525081526020016040518060800160405280604c815260200162004910604c9139815250600060405162000cbd9062003eca565b908152602001604051809103902060008201518160000155602082015181600101908051906020019062000cf3929190620039fc565b50604082015181600201908051906020019062000d12929190620039fc565b50606082015181600301908051906020019062000d31929190620039fc565b5060808201518160040190600c62000d4b92919062003a83565b5060a082015181601001908051906020019062000d6a929190620039fc565b509050506040518060c00160405280601781526020016040518060400160405280600181526020017f6d0000000000000000000000000000000000000000000000000000000000000081525081526020016040518060400160405280600581526020017f73686f727400000000000000000000000000000000000000000000000000000081525081526020016040518060400160405280600181526020017f4c0000000000000000000000000000000000000000000000000000000000000081525081526020016040518061018001604052806040518060400160405280600481526020017f533030310000000000000000000000000000000000000000000000000000000081525081526020016040518060400160405280600481526020017f533030320000000000000000000000000000000000000000000000000000000081525081526020016040518060400160405280600481526020017f533030330000000000000000000000000000000000000000000000000000000081525081526020016040518060400160405280600481526020017f533030340000000000000000000000000000000000000000000000000000000081525081526020016040518060400160405280600481526020017f533030350000000000000000000000000000000000000000000000000000000081525081526020016040518060400160405280600481526020017f533030360000000000000000000000000000000000000000000000000000000081525081526020016040518060400160405280600181526020017f300000000000000000000000000000000000000000000000000000000000000081525081526020016040518060400160405280600181526020017f300000000000000000000000000000000000000000000000000000000000000081525081526020016040518060400160405280600181526020017f300000000000000000000000000000000000000000000000000000000000000081525081526020016040518060400160405280600181526020017f300000000000000000000000000000000000000000000000000000000000000081525081526020016040518060400160405280600181526020017f300000000000000000000000000000000000000000000000000000000000000081525081526020016040518060400160405280600181526020017f300000000000000000000000000000000000000000000000000000000000000081525081525081526020016040518060800160405280604c815260200162004910604c91398152506000604051620011319062003f54565b908152602001604051809103902060008201518160000155602082015181600101908051906020019062001167929190620039fc565b50604082015181600201908051906020019062001186929190620039fc565b506060820151816003019080519060200190620011a5929190620039fc565b5060808201518160040190600c620011bf92919062003a83565b5060a0820151816010019080519060200190620011de929190620039fc565b509050506040518060c00160405280601581526020016040518060400160405280600181526020017f6d0000000000000000000000000000000000000000000000000000000000000081525081526020016040518060400160405280600581526020017f73686f727400000000000000000000000000000000000000000000000000000081525081526020016040518060400160405280600181526020017f520000000000000000000000000000000000000000000000000000000000000081525081526020016040518061018001604052806040518060400160405280600481526020017f533030310000000000000000000000000000000000000000000000000000000081525081526020016040518060400160405280600481526020017f533030320000000000000000000000000000000000000000000000000000000081525081526020016040518060400160405280600481526020017f533030330000000000000000000000000000000000000000000000000000000081525081526020016040518060400160405280600481526020017f533030340000000000000000000000000000000000000000000000000000000081525081526020016040518060400160405280600181526020017f300000000000000000000000000000000000000000000000000000000000000081525081526020016040518060400160405280600181526020017f300000000000000000000000000000000000000000000000000000000000000081525081526020016040518060400160405280600181526020017f300000000000000000000000000000000000000000000000000000000000000081525081526020016040518060400160405280600181526020017f300000000000000000000000000000000000000000000000000000000000000081525081526020016040518060400160405280600181526020017f300000000000000000000000000000000000000000000000000000000000000081525081526020016040518060400160405280600181526020017f300000000000000000000000000000000000000000000000000000000000000081525081526020016040518060400160405280600181526020017f300000000000000000000000000000000000000000000000000000000000000081525081526020016040518060400160405280600181526020017f300000000000000000000000000000000000000000000000000000000000000081525081525081526020016040518060800160405280604c815260200162004910604c91398152506000604051620015a59062003f82565b9081526020016040518091039020600082015181600001556020820151816001019080519060200190620015db929190620039fc565b506040820151816002019080519060200190620015fa929190620039fc565b50606082015181600301908051906020019062001619929190620039fc565b5060808201518160040190600c6200163392919062003a83565b5060a082015181601001908051906020019062001652929190620039fc565b509050506040518060c00160405280601581526020016040518060400160405280600181526020017f6d0000000000000000000000000000000000000000000000000000000000000081525081526020016040518060400160405280600581526020017f73686f727400000000000000000000000000000000000000000000000000000081525081526020016040518060400160405280600181526020017f520000000000000000000000000000000000000000000000000000000000000081525081526020016040518061018001604052806040518060400160405280600481526020017f533030310000000000000000000000000000000000000000000000000000000081525081526020016040518060400160405280600481526020017f533030320000000000000000000000000000000000000000000000000000000081525081526020016040518060400160405280600481526020017f533030330000000000000000000000000000000000000000000000000000000081525081526020016040518060400160405280600481526020017f533030340000000000000000000000000000000000000000000000000000000081525081526020016040518060400160405280600481526020017f533030350000000000000000000000000000000000000000000000000000000081525081526020016040518060400160405280600481526020017f533030360000000000000000000000000000000000000000000000000000000081525081526020016040518060400160405280600181526020017f300000000000000000000000000000000000000000000000000000000000000081525081526020016040518060400160405280600181526020017f300000000000000000000000000000000000000000000000000000000000000081525081526020016040518060400160405280600181526020017f300000000000000000000000000000000000000000000000000000000000000081525081526020016040518060400160405280600181526020017f300000000000000000000000000000000000000000000000000000000000000081525081526020016040518060400160405280600181526020017f300000000000000000000000000000000000000000000000000000000000000081525081526020016040518060400160405280600181526020017f300000000000000000000000000000000000000000000000000000000000000081525081525081526020016040518060800160405280604c815260200162004910604c9139815250600060405162001a199062003f0f565b908152602001604051809103902060008201518160000155602082015181600101908051906020019062001a4f929190620039fc565b50604082015181600201908051906020019062001a6e929190620039fc565b50606082015181600301908051906020019062001a8d929190620039fc565b5060808201518160040190600c62001aa792919062003a83565b5060a082015181601001908051906020019062001ac6929190620039fc565b509050506040518060c00160405280601781526020016040518060400160405280600181526020017f6d0000000000000000000000000000000000000000000000000000000000000081525081526020016040518060400160405280600581526020017f73686f727400000000000000000000000000000000000000000000000000000081525081526020016040518060400160405280600181526020017f520000000000000000000000000000000000000000000000000000000000000081525081526020016040518061018001604052806040518060400160405280600481526020017f533030310000000000000000000000000000000000000000000000000000000081525081526020016040518060400160405280600481526020017f533030320000000000000000000000000000000000000000000000000000000081525081526020016040518060400160405280600481526020017f533030330000000000000000000000000000000000000000000000000000000081525081526020016040518060400160405280600481526020017f533030340000000000000000000000000000000000000000000000000000000081525081526020016040518060400160405280600481526020017f533030350000000000000000000000000000000000000000000000000000000081525081526020016040518060400160405280600181526020017f300000000000000000000000000000000000000000000000000000000000000081525081526020016040518060400160405280600181526020017f300000000000000000000000000000000000000000000000000000000000000081525081526020016040518060400160405280600181526020017f300000000000000000000000000000000000000000000000000000000000000081525081526020016040518060400160405280600181526020017f300000000000000000000000000000000000000000000000000000000000000081525081526020016040518060400160405280600181526020017f300000000000000000000000000000000000000000000000000000000000000081525081526020016040518060400160405280600181526020017f300000000000000000000000000000000000000000000000000000000000000081525081526020016040518060400160405280600181526020017f300000000000000000000000000000000000000000000000000000000000000081525081525081526020016040518060800160405280604c815260200162004910604c9139815250600060405162001e8d9062003fde565b908152602001604051809103902060008201518160000155602082015181600101908051906020019062001ec3929190620039fc565b50604082015181600201908051906020019062001ee2929190620039fc565b50606082015181600301908051906020019062001f01929190620039fc565b5060808201518160040190600c62001f1b92919062003a83565b5060a082015181601001908051906020019062001f3a929190620039fc565b509050506040518060c00160405280601681526020016040518060400160405280600181526020017f6d0000000000000000000000000000000000000000000000000000000000000081525081526020016040518060400160405280600581526020017f73686f727400000000000000000000000000000000000000000000000000000081525081526020016040518060400160405280600181526020017f4c0000000000000000000000000000000000000000000000000000000000000081525081526020016040518061018001604052806040518060400160405280600481526020017f533030310000000000000000000000000000000000000000000000000000000081525081526020016040518060400160405280600481526020017f533030320000000000000000000000000000000000000000000000000000000081525081526020016040518060400160405280600481526020017f533030330000000000000000000000000000000000000000000000000000000081525081526020016040518060400160405280600481526020017f533030340000000000000000000000000000000000000000000000000000000081525081526020016040518060400160405280600181526020017f300000000000000000000000000000000000000000000000000000000000000081525081526020016040518060400160405280600181526020017f300000000000000000000000000000000000000000000000000000000000000081525081526020016040518060400160405280600181526020017f300000000000000000000000000000000000000000000000000000000000000081525081526020016040518060400160405280600181526020017f300000000000000000000000000000000000000000000000000000000000000081525081526020016040518060400160405280600181526020017f300000000000000000000000000000000000000000000000000000000000000081525081526020016040518060400160405280600181526020017f300000000000000000000000000000000000000000000000000000000000000081525081526020016040518060400160405280600181526020017f300000000000000000000000000000000000000000000000000000000000000081525081526020016040518060400160405280600181526020017f300000000000000000000000000000000000000000000000000000000000000081525081525081526020016040518060800160405280604c815260200162004910604c91398152506000604051620023019062003fb0565b908152602001604051809103902060008201518160000155602082015181600101908051906020019062002337929190620039fc565b50604082015181600201908051906020019062002356929190620039fc565b50606082015181600301908051906020019062002375929190620039fc565b5060808201518160040190600c6200238f92919062003a83565b5060a0820151816010019080519060200190620023ae929190620039fc565b509050506040518060c00160405280601681526020016040518060400160405280600181526020017f6d0000000000000000000000000000000000000000000000000000000000000081525081526020016040518060400160405280600581526020017f73686f727400000000000000000000000000000000000000000000000000000081525081526020016040518060400160405280600181526020017f520000000000000000000000000000000000000000000000000000000000000081525081526020016040518061018001604052806040518060400160405280600481526020017f533030310000000000000000000000000000000000000000000000000000000081525081526020016040518060400160405280600481526020017f533030320000000000000000000000000000000000000000000000000000000081525081526020016040518060400160405280600181526020017f300000000000000000000000000000000000000000000000000000000000000081525081526020016040518060400160405280600181526020017f300000000000000000000000000000000000000000000000000000000000000081525081526020016040518060400160405280600181526020017f300000000000000000000000000000000000000000000000000000000000000081525081526020016040518060400160405280600181526020017f300000000000000000000000000000000000000000000000000000000000000081525081526020016040518060400160405280600181526020017f300000000000000000000000000000000000000000000000000000000000000081525081526020016040518060400160405280600181526020017f300000000000000000000000000000000000000000000000000000000000000081525081526020016040518060400160405280600181526020017f300000000000000000000000000000000000000000000000000000000000000081525081526020016040518060400160405280600181526020017f300000000000000000000000000000000000000000000000000000000000000081525081526020016040518060400160405280600181526020017f300000000000000000000000000000000000000000000000000000000000000081525081526020016040518060400160405280600181526020017f300000000000000000000000000000000000000000000000000000000000000081525081525081526020016040518060800160405280604c815260200162004910604c91398152506000604051620027759062003f6b565b9081526020016040518091039020600082015181600001556020820151816001019080519060200190620027ab929190620039fc565b506040820151816002019080519060200190620027ca929190620039fc565b506060820151816003019080519060200190620027e9929190620039fc565b5060808201518160040190600c6200280392919062003a83565b5060a082015181601001908051906020019062002822929190620039fc565b509050506040518060c00160405280601781526020016040518060400160405280600181526020017f6d0000000000000000000000000000000000000000000000000000000000000081525081526020016040518060400160405280600581526020017f73686f727400000000000000000000000000000000000000000000000000000081525081526020016040518060400160405280600181526020017f520000000000000000000000000000000000000000000000000000000000000081525081526020016040518061018001604052806040518060400160405280600481526020017f533030310000000000000000000000000000000000000000000000000000000081525081526020016040518060400160405280600481526020017f533030320000000000000000000000000000000000000000000000000000000081525081526020016040518060400160405280600181526020017f300000000000000000000000000000000000000000000000000000000000000081525081526020016040518060400160405280600181526020017f300000000000000000000000000000000000000000000000000000000000000081525081526020016040518060400160405280600181526020017f300000000000000000000000000000000000000000000000000000000000000081525081526020016040518060400160405280600181526020017f300000000000000000000000000000000000000000000000000000000000000081525081526020016040518060400160405280600181526020017f300000000000000000000000000000000000000000000000000000000000000081525081526020016040518060400160405280600181526020017f300000000000000000000000000000000000000000000000000000000000000081525081526020016040518060400160405280600181526020017f300000000000000000000000000000000000000000000000000000000000000081525081526020016040518060400160405280600181526020017f300000000000000000000000000000000000000000000000000000000000000081525081526020016040518060400160405280600181526020017f300000000000000000000000000000000000000000000000000000000000000081525081526020016040518060400160405280600181526020017f300000000000000000000000000000000000000000000000000000000000000081525081525081526020016040518060800160405280604c815260200162004910604c9139815250600060405162002be99062003ef8565b908152602001604051809103902060008201518160000155602082015181600101908051906020019062002c1f929190620039fc565b50604082015181600201908051906020019062002c3e929190620039fc565b50606082015181600301908051906020019062002c5d929190620039fc565b5060808201518160040190600c62002c7792919062003a83565b5060a082015181601001908051906020019062002c96929190620039fc565b509050506040518060c00160405280602681526020016040518060400160405280600181526020017f6d0000000000000000000000000000000000000000000000000000000000000081525081526020016040518060400160405280600581526020017f73686f727400000000000000000000000000000000000000000000000000000081525081526020016040518060400160405280600181526020017f520000000000000000000000000000000000000000000000000000000000000081525081526020016040518061018001604052806040518060400160405280600481526020017f533030310000000000000000000000000000000000000000000000000000000081525081526020016040518060400160405280600481526020017f533030320000000000000000000000000000000000000000000000000000000081525081526020016040518060400160405280600481526020017f533030330000000000000000000000000000000000000000000000000000000081525081526020016040518060400160405280600481526020017f533030340000000000000000000000000000000000000000000000000000000081525081526020016040518060400160405280600181526020017f300000000000000000000000000000000000000000000000000000000000000081525081526020016040518060400160405280600181526020017f300000000000000000000000000000000000000000000000000000000000000081525081526020016040518060400160405280600181526020017f300000000000000000000000000000000000000000000000000000000000000081525081526020016040518060400160405280600181526020017f300000000000000000000000000000000000000000000000000000000000000081525081526020016040518060400160405280600181526020017f300000000000000000000000000000000000000000000000000000000000000081525081526020016040518060400160405280600181526020017f300000000000000000000000000000000000000000000000000000000000000081525081526020016040518060400160405280600181526020017f300000000000000000000000000000000000000000000000000000000000000081525081526020016040518060400160405280600181526020017f300000000000000000000000000000000000000000000000000000000000000081525081525081526020016040518060800160405280604c815260200162004910604c913981525060006040516200305d9062003f3d565b908152602001604051809103902060008201518160000155602082015181600101908051906020019062003093929190620039fc565b506040820151816002019080519060200190620030b2929190620039fc565b506060820151816003019080519060200190620030d1929190620039fc565b5060808201518160040190600c620030eb92919062003a83565b5060a08201518160100190805190602001906200310a929190620039fc565b509050506040518060c00160405280601581526020016040518060400160405280600181526020017f6d0000000000000000000000000000000000000000000000000000000000000081525081526020016040518060400160405280600581526020017f73686f727400000000000000000000000000000000000000000000000000000081525081526020016040518060400160405280600181526020017f520000000000000000000000000000000000000000000000000000000000000081525081526020016040518061018001604052806040518060400160405280600481526020017f533030310000000000000000000000000000000000000000000000000000000081525081526020016040518060400160405280600481526020017f533030320000000000000000000000000000000000000000000000000000000081525081526020016040518060400160405280600481526020017f533030330000000000000000000000000000000000000000000000000000000081525081526020016040518060400160405280600481526020017f533030340000000000000000000000000000000000000000000000000000000081525081526020016040518060400160405280600481526020017f533030350000000000000000000000000000000000000000000000000000000081525081526020016040518060400160405280600481526020017f533030360000000000000000000000000000000000000000000000000000000081525081526020016040518060400160405280600181526020017f300000000000000000000000000000000000000000000000000000000000000081525081526020016040518060400160405280600181526020017f300000000000000000000000000000000000000000000000000000000000000081525081526020016040518060400160405280600181526020017f300000000000000000000000000000000000000000000000000000000000000081525081526020016040518060400160405280600181526020017f300000000000000000000000000000000000000000000000000000000000000081525081526020016040518060400160405280600181526020017f300000000000000000000000000000000000000000000000000000000000000081525081526020016040518060400160405280600181526020017f300000000000000000000000000000000000000000000000000000000000000081525081525081526020016040518060800160405280604c815260200162004910604c91398152506000604051620034d19062003f99565b908152602001604051809103902060008201518160000155602082015181600101908051906020019062003507929190620039fc565b50604082015181600201908051906020019062003526929190620039fc565b50606082015181600301908051906020019062003545929190620039fc565b5060808201518160040190600c6200355f92919062003a83565b5060a08201518160100190805190602001906200357e929190620039fc565b509050506040518060c00160405280601c81526020016040518060400160405280600181526020017f660000000000000000000000000000000000000000000000000000000000000081525081526020016040518060400160405280600481526020017f6c6f6e670000000000000000000000000000000000000000000000000000000081525081526020016040518060400160405280600181526020017f520000000000000000000000000000000000000000000000000000000000000081525081526020016040518061018001604052806040518060400160405280600481526020017f533030310000000000000000000000000000000000000000000000000000000081525081526020016040518060400160405280600481526020017f533030320000000000000000000000000000000000000000000000000000000081525081526020016040518060400160405280600181526020017f300000000000000000000000000000000000000000000000000000000000000081525081526020016040518060400160405280600181526020017f300000000000000000000000000000000000000000000000000000000000000081525081526020016040518060400160405280600181526020017f300000000000000000000000000000000000000000000000000000000000000081525081526020016040518060400160405280600181526020017f300000000000000000000000000000000000000000000000000000000000000081525081526020016040518060400160405280600181526020017f300000000000000000000000000000000000000000000000000000000000000081525081526020016040518060400160405280600181526020017f300000000000000000000000000000000000000000000000000000000000000081525081526020016040518060400160405280600181526020017f300000000000000000000000000000000000000000000000000000000000000081525081526020016040518060400160405280600181526020017f300000000000000000000000000000000000000000000000000000000000000081525081526020016040518060400160405280600181526020017f300000000000000000000000000000000000000000000000000000000000000081525081526020016040518060400160405280600181526020017f300000000000000000000000000000000000000000000000000000000000000081525081525081526020016040518060800160405280604c815260200162004910604c91398152506000604051620039459062003ee1565b90815260200160405180910390206000820151816000015560208201518160010190805190602001906200397b929190620039fc565b5060408201518160020190805190602001906200399a929190620039fc565b506060820151816003019080519060200190620039b9929190620039fc565b5060808201518160040190600c620039d392919062003a83565b5060a0820151816010019080519060200190620039f2929190620039fc565b5090505062004000565b828054600181600116156101000203166002900490600052602060002090601f016020900481019282601f1062003a3f57805160ff191683800117855562003a70565b8280016001018555821562003a70579182015b8281111562003a6f57825182559160200191906001019062003a52565b5b50905062003a7f919062003add565b5090565b82600c810192821562003aca579160200282015b8281111562003ac957825182908051906020019062003ab8929190620039fc565b509160200191906001019062003a97565b5b50905062003ad9919062003afc565b5090565b5b8082111562003af857600081600090555060010162003ade565b5090565b5b8082111562003b20576000818162003b16919062003b24565b5060010162003afd565b5090565b50805460018160011615610100020316600290046000825580601f1062003b4c575062003b6d565b601f01602090049060005260206000209081019062003b6c919062003add565b5b50565b600062003b7f60088362003ff5565b91507f30373137623339390000000000000000000000000000000000000000000000006000830152600882019050919050565b600062003bc160088362003ff5565b91507f37373163306166360000000000000000000000000000000000000000000000006000830152600882019050919050565b600062003c0360088362003ff5565b91507f34653763616332640000000000000000000000000000000000000000000000006000830152600882019050919050565b600062003c4560088362003ff5565b91507f38353963643934330000000000000000000000000000000000000000000000006000830152600882019050919050565b600062003c8760088362003ff5565b91507f36383038646661620000000000000000000000000000000000000000000000006000830152600882019050919050565b600062003cc960088362003ff5565b91507f31636664376266610000000000000000000000000000000000000000000000006000830152600882019050919050565b600062003d0b60088362003ff5565b91507f61393232336539330000000000000000000000000000000000000000000000006000830152600882019050919050565b600062003d4d60088362003ff5565b91507f34626332303036650000000000000000000000000000000000000000000000006000830152600882019050919050565b600062003d8f60088362003ff5565b91507f63623338336266640000000000000000000000000000000000000000000000006000830152600882019050919050565b600062003dd160088362003ff5565b91507f38633730633064330000000000000000000000000000000000000000000000006000830152600882019050919050565b600062003e1360088362003ff5565b91507f39323761653534330000000000000000000000000000000000000000000000006000830152600882019050919050565b600062003e5560088362003ff5565b91507f31333438373733620000000000000000000000000000000000000000000000006000830152600882019050919050565b600062003e9760088362003ff5565b91507f64643834623430350000000000000000000000000000000000000000000000006000830152600882019050919050565b600062003ed78262003b70565b9150819050919050565b600062003eee8262003bb2565b9150819050919050565b600062003f058262003bf4565b9150819050919050565b600062003f1c8262003c36565b9150819050919050565b600062003f338262003c78565b9150819050919050565b600062003f4a8262003cba565b9150819050919050565b600062003f618262003cfc565b9150819050919050565b600062003f788262003d3e565b9150819050919050565b600062003f8f8262003d80565b9150819050919050565b600062003fa68262003dc2565b9150819050919050565b600062003fbd8262003e04565b9150819050919050565b600062003fd48262003e46565b9150819050919050565b600062003feb8262003e88565b9150819050919050565b600081905092915050565b61090080620040106000396000f3fe608060405234801561001057600080fd5b50600436106100415760003560e01c806331feb671146100465780635ca1e1651461007a578063ae55c88814610098575b600080fd5b610060600480360381019061005b919061052a565b6100c8565b6040516100719594939291906106df565b60405180910390f35b6100826103c6565b60405161008f91906106bd565b60405180910390f35b6100b260048036038101906100ad919061052a565b6103e6565b6040516100bf91906106bd565b60405180910390f35b600060608060606100d76104ae565b600080876040516100e891906106a6565b90815260200160405180910390209050806000015481600101826002018360030184600401838054600181600116156101000203166002900480601f0160208091040260200160405190810160405280929190818152602001828054600181600116156101000203166002900480156101a25780601f10610177576101008083540402835291602001916101a2565b820191906000526020600020905b81548152906001019060200180831161018557829003601f168201915b50505050509350828054600181600116156101000203166002900480601f01602080910402602001604051908101604052809291908181526020018280546001816001161561010002031660029004801561023e5780601f106102135761010080835404028352916020019161023e565b820191906000526020600020905b81548152906001019060200180831161022157829003601f168201915b50505050509250818054600181600116156101000203166002900480601f0160208091040260200160405190810160405280929190818152602001828054600181600116156101000203166002900480156102da5780601f106102af576101008083540402835291602001916102da565b820191906000526020600020905b8154815290600101906020018083116102bd57829003601f168201915b5050505050915080600c80602002604051908101604052809291906000905b828210156103ac578382018054600181600116156101000203166002900480601f0160208091040260200160405190810160405280929190818152602001828054600181600116156101000203166002900480156103985780601f1061036d57610100808354040283529160200191610398565b820191906000526020600020905b81548152906001019060200180831161037b57829003601f168201915b5050505050815260200190600101906102f9565b505050509050955095509550955095505091939590929450565b606060405180608001604052806057815260200161087460579139905090565b6060600080836040516103f991906106a6565b90815260200160405180910390209050806010018054600181600116156101000203166002900480601f0160208091040260200160405190810160405280929190818152602001828054600181600116156101000203166002900480156104a15780601f10610476576101008083540402835291602001916104a1565b820191906000526020600020905b81548152906001019060200180831161048457829003601f168201915b5050505050915050919050565b604051806101800160405280600c905b60608152602001906001900390816104be5790505090565b600082601f8301126104e757600080fd5b81356104fa6104f58261077f565b61074e565b9150808252602083016020830185838301111561051657600080fd5b61052183828461081e565b50505092915050565b60006020828403121561053c57600080fd5b600082013567ffffffffffffffff81111561055657600080fd5b610562848285016104d6565b91505092915050565b600061057783836105f4565b905092915050565b600061058a826107b9565b61059481856107dc565b9350836020820285016105a6856107af565b8060005b858110156105e257848403895281516105c3858261056b565b94506105ce836107cf565b925060208a019950506001810190506105aa565b50829750879550505050505092915050565b60006105ff826107c4565b61060981856107e7565b935061061981856020860161082d565b61062281610862565b840191505092915050565b6000610638826107c4565b61064281856107f8565b935061065281856020860161082d565b61065b81610862565b840191505092915050565b6000610671826107c4565b61067b8185610809565b935061068b81856020860161082d565b80840191505092915050565b6106a081610814565b82525050565b60006106b28284610666565b915081905092915050565b600060208201905081810360008301526106d7818461062d565b905092915050565b600060a0820190506106f46000830188610697565b8181036020830152610706818761062d565b9050818103604083015261071a818661062d565b9050818103606083015261072e818561062d565b90508181036080830152610742818461057f565b90509695505050505050565b6000604051905081810181811067ffffffffffffffff8211171561077557610774610860565b5b8060405250919050565b600067ffffffffffffffff82111561079a57610799610860565b5b601f19601f8301169050602081019050919050565b6000819050919050565b6000600c9050919050565b600081519050919050565b6000602082019050919050565b600081905092915050565b600082825260208201905092915050565b600082825260208201905092915050565b600081905092915050565b6000819050919050565b82818337600083830152505050565b60005b8381101561084b578082015181840152602081019050610830565b8381111561085a576000848401525b50505050565bfe5b6000601f19601f830116905091905056fe68747470733a2f2f64726976652e676f6f676c652e636f6d2f64726976652f666f6c646572732f315933347435637733334a63557633376a4c694e456c796d576b756c4f656f2d6b3f7573703d73686172655f6c696e6ba26469706673582212200de352dc722f40d6af2ebb53bc5b94037f3209c74f9ead409eb4c4e79367b8fc64736f6c6343000703003368747470733a2f2f64726976652e676f6f676c652e636f6d2f64726976652f752f302f666f6c646572732f316f6b7a4d547862733337346c3046356236743142736f707a676d36516777724c",
  "linkReferences": {},
  "deployedLinkReferences": {}
}